:020000040000FA
:1000000001288316031306309F0083160313FF3065
:100010008500870183120313850187012E2883162B
:1000200003131830920083120313193095009B00BC
:10003000831203130C3097009D00831203130530C5
:10004000920005182E2085183120051938208519B1
:100050004020051A4820851A5020212805180F280D
:100060002E2883120313920197019D015820080046
:1000700019301B020319080005309B07582008009F
:1000800000301B020319080005309B0258200800AD
:10009000193015020319080005309507582008008B
:1000A0000030150203190800053095025820080099
:1000B000FF30A200FF30A300A30B5C28A20B5A283C
:0200C000080036
:02400E00313F40
:00000001FF
