:020000040000FA
:020000001F28B7
:0800080005280C1C09000C1076
:10001000831203133C308F00B0308E00A20B090016
:100020000A30A200A70A0A302702031D0900A7010F
:10003000A60A063026020319A601A70109008316A5
:10004000031306309F008316031385018601831274
:10005000031385018601831203138B170B17831675
:1000600003130C14831203133C308F00B0308E0046
:100070008312031311309000831203130A30A2007D
:10008000A601A701851026085120051486005C20D2
:100090008601051027085120851486005C20860102
:1000A000422882073F3406345B344F3466346D3463
:1000B0007D3407347F346F341030A4001030A50035
:0A00C000A50B6028A40B5E280800C1
:02400E00313F40
:00000001FF
