:020000040000FA
:020000001428C2
:0800080005280C1C09000C1076
:10001000831203133C308F00B0308E00A20B090016
:100020002308A200860A09008316031306309F00E6
:1000300083160313051485148601831203138501A7
:100040008601831203138B170B17831603130C14EB
:10005000831203133C308F00B0308E0083120313E1
:1000600011309000831203130A30A200A30048202D
:1000700005183E284820851C372843280F302302C6
:10008000031CA30A372805302302031DA3033728C6
:10009000A030A400A030A500A50B4C28A40B4A2832
:0200A000080056
:02400E00313F40
:00000001FF
